:100000000C94A7000C94C4000C94C4000C94C4007D
:100010000C94C4000C94C4000C94C4000C94C40050
:100020000C94C4000C94C4000C94C4000C94C40040
:100030000C94C4000C94C4000C94C4000C94C40030
:100040000C94C4000C94C4000C94C4000C94C40020
:100050000C94C4000C94C4000C94C4000C94C40010
:100060000C94C4000C9435050C94C4000C94430506
:100070000C94C4000C94C4000C94C4000C94C400F0
:100080000C94C4000C94C4000C94C4000C94C400E0
:100090000C94F2010C94C4000C94C4000C94C400A1
:1000A0000C94C4000C94C4000C94C400E600DD0160
:1000B000DD01DD01DD01DD01DD01DD01E600DD0148
:1000C000DD01DD01DD01DD01DD01DD01F900DD0125
:1000D000DD01DD01DD01DD01DD01DD010901DD0104
:1000E000DD01DD01DD01DD01DD01DD011901DD01E4
:1000F000DD01DD01DD01DD01DD01DD014F01DD019E
:10010000DD01DD01DD01DD01DD01DD01DD01DD01FF
:10011000DD01DD01DD01DD01DD01DD017301DD0159
:10012000DD01DD01DD01DD01DD01DD018501DD0137
:10013000DD01DD01DD01DD01DD01DD019501DD0117
:10014000DD01DD01DD01DD01DD01DD01BD01112488
:100150001FBECFEFDAE0DEBFCDBF11E0A0E0B1E01F
:10016000E0E4F4E102C005900D92A239B107D9F79D
:1001700021E0A2E9B1E001C01D92A33EB207E1F780
:100180000E941B040C941E0A0C940000909397018B
:10019000809396010895CF93809196019091970155
:1001A0000E94EA0290939501809394014091B900D6
:1001B000E42FE87F4E2F50E0FA013897E135F10542
:1001C00008F0FBC0EA5AFF4F0C94E1050E94A2021E
:1001D000C82F80919401909195010E9487029927E0
:1001E000880F991F8C2B8093BB0085E88093BC00FF
:1001F000F4C00E949902FC0180818093BB0085E8D5
:100200008093BC0081E090E09093930180939201F1
:10021000E4C085ED8093BC00809196019091970198
:100220000E94BD02109293011092920110929801C7
:10023000D7C00E94900220919201309193018217C1
:10024000930781F485ED8093BC0080919601909195
:1002500097010E94BD021092980110929301109292
:100260009201BEC080919401909195010E949902E3
:100270002091920130919301820F931FFC018081A4
:100280008093BB0085E88093BC008091920190919F
:100290009301019690939301809392019EC085ED06
:1002A0008093BC0080919401909195010E949002EE
:1002B00020919201309193018217930739F4809134
:1002C0009601909197010E94BD0206C0809196010F
:1002D000909197010E94BD02109298011092930193
:1002E000109292017DC00E9490020197209192018C
:1002F000309193018217930721F485E88093BC0025
:100300006CC085EC8093BC0068C085ED8093BC0018
:1003100080919601909197010E94BD0210929301E5
:1003200010929201109298015BC00E949902209154
:10033000920130919301820F931F4091BB00FC0109
:1003400040832F5F3F4F3093930120939201809120
:100350009401909195010E94900201972091920141
:10036000309193018217930721F485E88093BC00B4
:1003700034C085EC8093BC0030C00E94990220916B
:10038000920130919301820F931F2091BB00FC01D9
:100390002083109293011092920185ED8093BC000E
:1003A00080919601909197010E94BD021092930155
:1003B000109292011092980113C085ED8093BC00B9
:1003C00080919601909197010E94BD021092930135
:1003D000109292011092980103C081E080939801DD
:1003E000CF9108951F920F920FB60F9211242F9361
:1003F0003F934F935F936F937F938F939F93AF93AD
:10040000BF93EF93FF930E94CB00FF91EF91BF91B9
:10041000AF919F918F917F916F915F914F913F919C
:100420002F910F900FBE0F901F90189580919801FB
:1004300081110EC080919601909197010E9449030D
:10044000892B31F085EE8093BC0081E08093980188
:10045000089582E38093B80085E88093BC000895F6
:10046000AF92BF92CF92DF92EF92FF920F931F93C2
:10047000CF93DF936C018B015A0179018AE090E000
:100480000E940306EC01892B01F10115110591F47D
:10049000C7010E9403069D838C83009731F4CE012F
:1004A0000E949B0680E090E012C0A701B5010E9467
:1004B000240702C0BD82AC82D982C8821B830A8312
:1004C000FF82EE828C2F9D2F02C080E090E0DF91B2
:1004D000CF911F910F91FF90EF90DF90CF90BF9041
:1004E000AF900895CF93DF93009771F0EC018A816C
:1004F0009B81892B31F48C819D81009711F00E94A2
:100500009B06CE010E949B06DF91CF910895009734
:1005100021F0FC0180819181089580E090E00895B0
:10052000009721F0FC0186819781089580E090E09A
:100530000895009721F0FC0184819581089580E061
:1005400090E00895009721F0FC0182819381089545
:1005500080E090E0089586E090E00E940306FC01B0
:10056000009741F013821282118210821582148248
:100570009F2F089580E090E00895CF93DF93FC01D2
:10058000892B19F1F89482819381009701F12481DC
:1005900035812150310935832483208131818217AF
:1005A000930729F4118210821382128207C0DC01A2
:1005B00018962D913C91199733832283EF010E9465
:1005C000720278948A819B8102C080E090E0DF9182
:1005D000CF910895009721F0FC01828193810895C5
:1005E00080E090E00895FC01892B71F1611571059F
:1005F00071F1F89484819581019695838483A0811B
:10060000B181109769F019967C936E931897A08129
:10061000B18118968D919C9119979183808302C026
:1006200071836083A081B18119961C921E921897E4
:1006300082819381892B21F48081918193838283AC
:10064000789480819181089580E090E0089580E021
:1006500090E008950F931F93CF93DF93FC01CB019C
:10066000BA01A901309759F09801EF010E943002B8
:10067000009741F0BC01CE010E94F30205C080E06A
:1006800090E002C080E090E0DF91CF911F910F9148
:100690000895009721F0FC0184819581089580E000
:1006A00090E008950097A1F061157105A1F0DC01BB
:1006B0001296ED91FC91139706C0E617F70771F0BB
:1006C0000084F185E02D3097C1F780E090E0089537
:1006D00080E090E0089580E090E0089581E090E06F
:1006E0000895AF92BF92CF92DF92EF92FF920F9355
:1006F0001F93CF93DF93CDB7DEB7CC55D1090FB69B
:10070000F894DEBF0FBECDBF7C012FEF80E792E0F3
:10071000215080409040E1F700C00000C7010E94D6
:10072000C60019821A8261E070E081E090E00E94C8
:10073000E7055C0122C002E010E09E012F5F3F4F01
:1007400040E050E069E270E0C7010E942A0301E046
:1007500010E0950141E050E069E270E0C7010E94BD
:100760002A036C0104C00E9416020E949A05B60179
:10077000C7010E945203892BB1F7F5018081843BA8
:10078000D1F688B1806488B98AE5EAE2F1E0DE0159
:10079000139601900D928A95E1F7C12CD12C19C0C6
:1007A0009601220F331F2C0D3D1D83E090E08C0F2E
:1007B0009D1F280F391F03E010E040E050E069E280
:1007C00070E0C7010E942A03892B51F39FEFC91AD9
:1007D000D90AEEE1CE16D1041CF3C12CD12C15C0E0
:1007E0009601220F331F2C0D3D1D2A5F3E4F03E063
:1007F00010E040E050E069E270E0C7010E942A0387
:10080000892B71F3FFEFCF1ADF0A2CE0C216D10457
:100810003CF3C45ADF4F0FB6F894DEBF0FBECDBF16
:10082000DF91CF911F910F91FF90EF90DF90CF90CC
:10083000BF90AF900895CF93DF93CDB7DEB7EC971D
:100840000FB6F894DEBF0FBECDBF85B7806885BFF9
:10085000E1E6F0E080E8808310820E9429020E9495
:100860008B0587B1806487B90E94AB027C010E942E
:10087000710319828FE48A831B8282E68C831D8236
:1008800085E18E8387E08F83188688E1898783E0FE
:100890008A8761E070E081E090E00E94E7056C01EA
:1008A00061E070E081E090E00E94E7055C018AE091
:1008B000F6018083C7010E94C600412C512C3201F1
:1008C0000E9416020E949A05C7010E944903892BC3
:1008D00011F502E010E09E012F5F3F4F40E050E035
:1008E00069E270E0C7010E942A0301E010E096016E
:1008F00041E050E069E270E0C7010E942A0303E092
:1009000010E09E012B5F3F4F40E050E069E270E055
:10091000C7010E942A03FFEF4F1A5F0A6F0A7F0A7E
:10092000F6018081882321F102E010E09E012D5F15
:100930003F4F40E050E069E270E0C7010E942A03A7
:1009400001E010E0950141E050E069E270E0C7018C
:100950000E942A0303E010E09E012B5F3F4F40E01E
:1009600050E069E270E0C7010E942A03F60110829C
:10097000F1E24F16FEE45F06610471040CF4A0CFAF
:10098000F501808181110CC003E010E09E01285F19
:100990003F4F40E050E069E270E0C7010E942A0347
:1009A000C7010E94EA020E9499023C01C7010E940D
:1009B000EA020E9490020197F301E80FF91F70808C
:1009C000C7010E944903F5013081F60120811F9281
:1009D0007F929F938F931F923F931F922F9384E850
:1009E00091E09F938F933E01FBE06F0E711C7F920D
:1009F0006F920E943407C3010E94CF05F601108256
:100A0000F50110820FB6F894DEBF0FBECDBF55CFF3
:100A10002091990130919A0120343105F4F44091EC
:100A2000DB015091DC01FA01E556FE4F8083CA01DB
:100A300001969093DC018093DB018034910524F0D2
:100A40001092DC011092DB012F5F3F4F30939A012F
:100A50002093990181E090E0089580E090E008956E
:100A60008091990190919A0108951F920F920FB66B
:100A70000F9211248F938091CE008F910F900FBE13
:100A80000F901F9018951F920F920FB60F9211247E
:100A90002F933F934F935F936F937F938F939F9386
:100AA000AF93BF93EF93FF930E943005892B11F111
:100AB000E091DD01F091DE01E556FE4F80818093EB
:100AC000CE008091DD019091DE0101969093DE01D0
:100AD0008093DD018034910524F01092DE011092A4
:100AE000DD018091990190919A01019790939A016B
:100AF00080939901FF91EF91BF91AF919F918F9159
:100B00007F916F915F914F913F912F910F900FBE09
:100B10000F901F90189588E090E09093CD008093FF
:100B2000CC00E9ECF0E08081806C8083808188617A
:100B300080830895E9ECF0E080818F7380830E94C8
:100B40003005892B31F18091C80085FF22C0E091EA
:100B5000DD01F091DE01E556FE4F80818093CE00ED
:100B60008091DD019091DE0101969093DE018093EA
:100B7000DD018034910524F01092DE011092DD0138
:100B80008091990190919A01019790939A01809395
:100B90009901E9ECF0E08081806C80830895CF9327
:100BA000DF93EC0108C00E949A0588810E94080525
:100BB000892BC9F3219688818111F7CFDF91CF91DD
:100BC0000895EE0FFF1F0590F491E02D09940F9307
:100BD0001F93CF93DF93869F8001879F100D969F71
:100BE000100D1124C8010E940306EC01009729F0A2
:100BF000A80160E070E00E942D07CE01DF91CF9147
:100C00001F910F9108950F931F93CF93DF9382301D
:100C1000910510F482E090E0E091E101F091E201B1
:100C200020E030E0A0E0B0E0309719F14081518140
:100C30000281138148175907C8F08417950769F492
:100C4000109731F012960C93129713961C9327C0AD
:100C50000093E1011093E20122C02115310519F042
:100C60004217530718F49A01BD01EF01DF01F801A3
:100C7000DBCF21153105F9F0281B390B2430310564
:100C800080F48A819B816115710521F0FB019383BA
:100C9000828304C09093E2018093E101FE013296C9
:100CA00044C0FE01E20FF31F81939193225031095A
:100CB000398328833AC02091DF013091E001232B52
:100CC00041F420910201309103013093E00120931F
:100CD000DF0120910001309101012115310541F41E
:100CE0002DB73EB74091040150910501241B350BEF
:100CF000E091DF01F091E001E217F307A0F42E1B71
:100D00003F0B2817390778F0AC014E5F5F4F24176F
:100D1000350748F04E0F5F1F5093E0014093DF010D
:100D20008193919302C0E0E0F0E0CF01DF91CF9199
:100D30001F910F910895CF93DF93009709F481C01D
:100D4000FC01329713821282A091E101B091E2017D
:100D5000109781F420813181820F931F2091DF0150
:100D60003091E0012817390751F5F093E001E09345
:100D7000DF0167C0ED0120E030E0CE17DF0740F46F
:100D80004A815B819E0141155105F1F0EA01F5CFE1
:100D9000D383C28340815181840F951FC817D9071F
:100DA00059F488819981840F951F029691838083DD
:100DB0008A819B81938382832115310529F4F093E5
:100DC000E201E093E1013DC0E901FB83EA8349913F
:100DD0005991C40FD51FEC17FD0761F480819181F3
:100DE000840F951F0296E9019983888382819381FC
:100DF0009B838A83E0E0F0E012968D919C9113979B
:100E0000009719F0FD01DC01F7CF8D919C911197AE
:100E10009D012E5F3F4F820F931F2091DF01309184
:100E2000E0012817390769F4309729F41092E2019C
:100E30001092E10102C013821282B093E001A093EC
:100E4000DF01DF91CF910895FB01DC0102C0019029
:100E50000D9241505040D8F70895DC0101C06D93C8
:100E600041505040E0F70895AEE0B0E0EAE3F7E02B
:100E70000C94F5090D891E8986E08C831A830983F9
:100E80008FEF9FE79E838D83AE01475E5F4F6F8933
:100E9000788DCE0101960E945607EF81F885E00F0C
:100EA000F11F10822E96E4E00C94110AABE0B0E042
:100EB000ECE5F7E00C94E7096C017B018A01FC0189
:100EC00017821682838181FFCCC1CE0101963C013D
:100ED000F6019381F70193FD859193FF81917F0145
:100EE000882309F4BAC1853239F493FD859193FFC3
:100EF00081917F01853229F4B60190E00E944D096D
:100F0000E7CF912C212C312CFFE1F315D8F08B3257
:100F100079F038F4803279F08332A1F4232D206106
:100F20001DC08D3261F0803369F4232D216016C01D
:100F3000832D8260382EE32DE4603E2E2AC0F32DEF
:100F4000F8601DC037FC2DC020ED280F2A3040F07E
:100F50008E32B9F436FC81C1232D2064322E19C0A3
:100F600036FE06C08AE0989E200D1124922E11C0F4
:100F7000EAE02E9E200D1124222EF32DF0623F2E4A
:100F800008C08C3621F4832D8068382E02C0883644
:100F900041F4F70193FD859193FF81917F018111C8
:100FA000B3CF982F9F7D9554933028F40C5F1F4F3B
:100FB0009FE399830DC0833631F0833771F0833519
:100FC00009F059C021C0F801808189830E5F1F4F4D
:100FD00088248394912C530113C02801F2E04F0E12
:100FE000511CF801A080B18036FE03C0692D70E06D
:100FF00002C06FEF7FEFC5010E9442094C018201E0
:10100000F32DFF773F2E16C0280122E0420E511C1F
:10101000F801A080B18036FE03C0692D70E002C0E7
:101020006FEF7FEFC5010E9437094C01F32DF06887
:101030003F2E820133FC1BC0822D90E0881699065A
:10104000B0F4B60180E290E00E944D092A94F4CFFA
:10105000F50137FC859137FE81915F01B60190E083
:101060000E944D0921102A9421E0821A91088114CE
:10107000910471F7E8C0843611F0893641F5F80122
:1010800037FE07C060817181828193810C5F1F4FA1
:1010900008C060817181072E000C880B990B0E5FD0
:1010A0001F4FF32DFF763F2E97FF09C09095809537
:1010B000709561957F4F8F4F9F4FF0683F2E2AE0CC
:1010C00030E0A3010E948909882E861845C0853723
:1010D00031F4232D2F7EB22E2AE030E025C0932D4F
:1010E000997FB92E8F36C1F018F4883579F0B5C0E4
:1010F000803719F0883721F0B0C0E92FE061BE2EAB
:10110000B4FE0DC0FB2DF460BF2E09C034FE0AC032
:10111000292F2660B22E06C028E030E005C020E16D
:1011200030E002C020E132E0F801B7FE07C0608184
:101130007181828193810C5F1F4F06C06081718134
:1011400080E090E00E5F1F4FA3010E948909882E66
:101150008618FB2DFF773F2E36FE0DC0232D2E7FE8
:10116000A22E891458F434FE0BC032FC09C0832D22
:101170008E7EA82E05C0B82CA32C03C0B82C01C0AD
:10118000B92CA4FE0FC0FE01E80DF11D8081803353
:1011900021F49A2D997EA92E09C0A2FE06C0B3940F
:1011A000B39404C08A2D867809F0B394A3FC11C0CF
:1011B000A0FE06C0B21488F4280C922C9B180EC016
:1011C000B21460F4B60180E290E00E944D09B3943D
:1011D000F7CFB21418F42B1802C0982C212CA4FEBF
:1011E00010C0B60180E390E00E944D09A2FE17C036
:1011F000A1FC03C088E790E002C088E590E0B6015A
:101200000CC08A2D867859F0A1FE02C08BE201C085
:1012100080E2A7FC8DE2B60190E00E944D0989149E
:1012200038F4B60180E390E00E944D099A94F7CF1C
:101230008A94F301E80DF11D8081B60190E00E94CF
:101240004D098110F5CF222009F442CEB60180E28B
:1012500090E00E944D092A94F6CFF601868197818D
:1012600002C08FEF9FEF2B96E2E10C94030AFC0182
:101270000590615070400110D8F7809590958E0FC1
:101280009F1F0895FC016150704001900110D8F734
:10129000809590958E0F9F1F08950F931F93CF9366
:1012A000DF93FB01238121FD03C08FEF9FEF2CC053
:1012B00022FF16C04681578124813581421753078A
:1012C00044F4A081B1819D012F5F3F4F3183208382
:1012D0008C93268137812F5F3F4F3783268314C03D
:1012E0008B01EC01FB010084F185E02D0995892B30
:1012F000E1F6D80116968D919C9117970196179655
:101300009C938E931697CE01DF91CF911F910F91F1
:101310000895FA01AA27283051F1203181F1E8948B
:101320006F936E7F6E5F7F4F8F4F9F4FAF4FB1E0D8
:101330003ED0B4E03CD0670F781F891F9A1FA11DD3
:10134000680F791F8A1F911DA11D6A0F711D811DD4
:10135000911DA11D20D009F468943F912AE0269F99
:1013600011243019305D3193DEF6CF010895462FF8
:101370004770405D4193B3E00FD0C9F7F6CF462FD9
:101380004F70405D4A3318F0495D31FD4052419342
:1013900002D0A9F7EACFB4E0A695979587957795FF
:1013A0006795BA95C9F700976105710508959B0186
:1013B000AC010A2E06945795479537952795BA950F
:1013C000C9F7620F731F841F951FA01D08952F92E8
:1013D0003F924F925F926F927F928F929F92AF92C5
:1013E000BF92CF92DF92EF92FF920F931F93CF9312
:1013F000DF93CDB7DEB7CA1BDB0B0FB6F894DEBFA9
:101400000FBECDBF09942A88398848885F846E84CE
:101410007D848C849B84AA84B984C884DF80EE8018
:10142000FD800C811B81AA81B981CE0FD11D0FB621
:10143000F894DEBF0FBECDBFED010895F894FFCF45
:101440000000E3012000001110010A30003F4600B7
:101450003164004063002E01001B00003E31001487
:1014600004002D0000160000180302070102080105
:101470000096000097FD00E30000E40400E5020090
:10148000E60100E70300F50200D90500DBCE00DC31
:101490000300DDF8009F0000A33C00B70000BB3C48
:1014A00000B20900CA0901980101B01701AD00009E
:1014B000FF0501000501990501A61B01AC3E01A72E
:1014C0001F00300025642025642025642025640A3F
:0214D00000001A
:00000001FF
