S01900004E6F6E426C6F636B696E674932434C69622E73726563E2
S11300000C9456000C9473000C9473000C947300BD
S11300100C9473000C9473000C9473000C94730090
S11300200C9473000C9473000C9473000C94730080
S11300300C9473000C9473000C9473000C94730070
S11300400C9473000C9473000C9473000C94730060
S11300500C9473000C9473000C9473000C94730050
S11300600C9473000C946D040C9473000C947B0436
S11300700C9473000C9473000C9473000C94730030
S11300800C9473000C9473000C9473000C94730020
S11300900C9453010C9473000C9473000C9473002F
S11300A00C9473000C9473000C94730011241FBE01
S11300B0CFEFDAE0DEBFCDBF11E0A0E0B1E0E2E9CE
S11300C0F2E102C005900D92A839B107D9F721E0F9
S11300D0A8E9B1E001C01D92A93EB207E1F70E9470
S11300E055030C9447090C94000090939D01809350
S11300F09C010895CF9380919C0190919D010E9451
S113010046029C0190939B0180939A019091B900BF
S1130110987F983209F44AC0B0F49031C1F118F4D0
S11301209830A9F1ABC0983109F0A8C0C9010E9468
S1130130F901FC0180818093BB0085E88093BC00B9
S113014081E090E059C0983409F498C040F49033A9
S113015009F457C0903409F091C0C9017FC09035AB
S113016009F465C0983509F089C0C9010E94F901F4
S11301704091BB002091980130919901820F931F07
S1130180FC014083109299011092980177C0C90133
S11301900E940202C82F80919A0190919B010E94B3
S11301A0E701880FC82BC093BB0062C0C9010E943D
S11301B0F00120919801309199018217930721F45D
S11301C085ED8093BC0026C080919A0190919B019B
S11301D00E94F9012091980130919901820F931F97
S11301E0FC0180818093BB0085E88093BC008091F2
S11301F098019091990101969093990180939801A7
S11302004DC085ED8093BC0080919A0190919B0133
S11302100E94F00180919C0190919D010E9419021D
S113022010929E0110929901109298013AC0C9014E
S11302300E94F90120919801309199014091BB00ED
S1130240820F931FFC0140832F5F3F4F309399012E
S11302502093980180919A0190919B010E94F00152
S1130260019720919801309199018217930721F405
S113027085E88093BC0012C085ECFBCF85ED8093AC
S1130280BC0080919C0190919D010E9419021092E2
S113029099011092980110929E0103C081E080930D
S11302A09E01CF9108951F920F920FB60F921124C1
S11302B02F933F934F935F936F937F938F939F936A
S11302C0AF93BF93EF93FF930E947A00FF91EF9156
S11302D0BF91AF919F918F917F916F915F914F915A
S11302E03F912F910F900FBE0F901F901895809102
S11302F09E0181110EC080919C0190919D010E94EC
S11303009602892B31F085EE8093BC0081E08093C6
S11303109E01089582E38093B80085E88093BC0031
S11303200895AF92BF92CF92DF92EF92FF920F9314
S11303301F93CF93DF935C017B016A0189018AE0FB
S113034090E00E942C05EC01892BE9F0E114F10402
S113035081F4C8010E942C059D838C83009721F4AD
S1130360CE010E94C4050FC0A801B6010E944D062B
S113037002C0DD82CC82B982A882FB82EA821F831A
S11303800E83CE0102C080E090E0DF91CF911F91F7
S11303900F91FF90EF90DF90CF90BF90AF900895B2
S11303A0CF93DF93009781F0EC018A819B81892BA5
S11303B031F48C819D81009711F00E94C405CE0117
S11303C0DF91CF910C94C405DF91CF9108950097EC
S11303D021F0FC0180819181089580E090E00895EE
S11303E0009721F0FC0186819781089580E090E0D8
S11303F00895009721F0FC0184819581089580E09F
S113040090E00895009721F0FC0182819381089582
S113041080E090E0089586E090E00E942C0500972B
S113042039F0FC0113821282118210821582148227
S11304300895CF93DF93FC01892B19F480E090E0B9
S113044022C0F894828193810097C1F3248135817D
S11304502150310935832483208131818217930708
S113046029F4118210821382128207C0DC011896CB
S11304702D913C91199733832283EF010E94D0017F
S113048078948A819B81DF91CF910895009721F020
S1130490FC0182819381089580E090E00895FC013D
S11304A0892B11F161157105F9F0F8948481958116
S11304B0019695838483A081B181109721F01996C8
S11304C07C936E93189771836083DB0119961C9259
S11304D01E92189782819381892B11F4738362830E
S11304E0789480819181089580E090E008950F933D
S11304F01F93CF93DF93FC01CB01BA01A90130977D
S113050071F09801EF010E949101009741F0BC0144
S1130510CE01DF91CF911F910F910C944F0280E097
S113052090E0DF91CF911F910F910895009721F0F2
S1130530FC0184819581089580E090E008950097FE
S113054089F06115710571F0DC011296ED91FC9151
S11305501397309739F0E617F70739F00084F185DF
S1130560E02DF7CF80E090E0089581E090E00895D9
S1130570AF92BF92CF92DF92EF92FF920F931F93AD
S1130580CF93DF93CDB7DEB7CC55D1090FB6F8942E
S1130590DEBF0FBECDBF6C012FEF80E792E021508C
S11305A080409040E1F700C00000C6010E94750041
S11305B05E01EBE5AE0EB11CF5011082118261E023
S11305C070E081E090E00E9410057C01F7018081D9
S11305D0843B01F102E010E0950140E050E069E263
S11305E070E0C6010E94770201E010E0970141E04B
S11305F050E069E270E0C6010E9477028C01B80104
S1130600C6010E949F02892B09F30E9477010E9470
S1130610C504F5CF469A8AE5EAE2F1E0DE011196D7
S113062001900D928A95E1F7CE0101967C0103E0D9
S113063010E0970140E050E069E270E0C6010E94DA
S11306407702892BA1F393E0E90EF11CEA14FB0471
S113065071F786E0E82E81E0F82E9AE2A92E91E067
S1130660B92E03E010E0970140E050E069E270E049
S1130670C6010E947702892BA1F3E3E0EE0EF11C80
S1130680AE14BF0471F7C45ADF4F0FB6F894DEBF3F
S11306900FBECDBFDF91CF911F910F91FF90EF90CF
S11306A0DF90CF90BF90AF900895CF93DF93CDB7F5
S11306B0DEB7EC970FB6F894DEBF0FBECDBF85B79B
S11306C0806885BF80E880936100109261000E9479
S11306D08A010E94B6043E9A0E940B027C010E9489
S11306E0B8021BAE8FE48CAF19AE82E68AAF80915C
S11306F0840190918501A09186018EAB9FABA8AF38
S11307008091870190918801A09189018BAB9CAB6A
S1130710ADAB61E070E081E090E00E9410056C01F7
S113072061E070E081E090E00E9410055C018AE0E5
S1130730F6018083C7010E9475008AE8482E81E093
S1130740582ECE0101964C01612C712C0E94770128
S11307500E94C504C7010E949602892B11F502E08C
S113076010E09E01255C3F4F40E050E069E270E0FC
S1130770C7010E94770201E010E0960141E050E0D9
S113078069E270E0C7010E94770203E010E09E0175
S11307902A5C3F4F40E050E069E270E0C7010E94EC
S11307A07702F6018081882321F102E010E09E01A6
S11307B0275C3F4F40E050E069E270E0C7010E94CF
S11307C0770201E010E0950141E050E069E270E059
S11307D0C7010E94770203E010E09E012A5C3F4FAC
S11307E040E050E069E270E0C7010E947702F60140
S11307F01082FFEF6F1A7F0A81E268168EE4780692
S113080009F0A4CFF501808181110CC003E010E050
S11308109E012D5C3F4F40E050E069E270E0C7016B
S11308200E947702C7010E9446020E94F9018C01CE
S1130830C7010E9446020E94F001800F911FFC0133
S113084031971081C7010E949602F5013081F601AB
S113085020811F921F939F938F931F923F931F9208
S11308602F935F924F929F928F920E945D06C401D4
S11308700E94FD04F6011082F50110820FB6F8946F
S1130880DEBF0FBECDBF60CF40919F015091A0014C
S113089040345105FCF42091E1013091E201F90169
S11308A0EF55FE4F8083C9010196803491052CF4E5
S11308B09093E2018093E10104C01092E20110924E
S11308C0E1014F5F5F4F5093A00140939F0181E08E
S11308D090E0089580E090E008951F920F920FB683
S11308E00F9211248F938091CE008F910F900FBEA1
S11308F00F901F9018951F920F920FB60F9211240C
S11309008F939F93EF93FF9380919F019091A00108
S1130910892B19F1E091E301F091E401EF55FE4FC9
S113092080818093CE008091E3019091E40101964F
S1130930803491052CF49093E4018093E30104C086
S11309401092E4011092E30180919F019091A00123
S113095001979093A00180939F01FF91EF919F9144
S11309608F910F900FBE0F901F90189588E090E024
S11309709093CD008093CC00E9ECF0E08081806C12
S1130980808380818861808308958091C9008F73FA
S11309908093C90080919F019091A001892B39F126
S11309A08091C80085FF23C0E091E301F091E40148
S11309B0EF55FE4F80818093CE008091E3019091AA
S11309C0E4010196803491052CF49093E401809322
S11309D0E30104C01092E4011092E30180919F01AD
S11309E09091A00101979093A00180939F01809121
S11309F0C900806C8093C9000895CF93DF93EC0104
S1130A008881882351F088810E944404892B19F439
S1130A100E94C504F8CF2196F3CFDF91CF910895BA
S1130A200F931F93CF93DF93869F8001879F100DB1
S1130A30969F100D1124C8010E942C05EC0100970B
S1130A4029F0A80160E070E00E945606CE01DF9113
S1130A50CF911F910F9108950F931F93CF93DF931D
S1130A608230910510F482E090E0E091E701F0918A
S1130A70E80120E030E0A0E0B0E0309719F14081D7
S1130A8051810281138148175907C8F084179507CB
S1130A9069F4109731F012960C93129713961C93E5
S1130AA027C00093E7011093E80122C02115310506
S1130AB019F04217530718F49A01BD01EF01DF0141
S1130AC0F801DBCF21153105F9F0281B390B24304F
S1130AD0310580F48A819B816115710521F0FB0148
S1130AE09383828304C09093E8018093E701FE011D
S1130AF0329644C0FE01E20FF31F8193919322507A
S1130B003109398328833AC02091E5013091E60107
S1130B10232B41F420910201309103013093E6012B
S1130B202093E50120910001309101012115310547
S1130B3041F42DB73EB74091040150910501241BA7
S1130B40350BE091E501F091E601E217F307A0F41B
S1130B502E1B3F0B2817390778F0AC014E5F5F4F0F
S1130B602417350748F04E0F5F1F5093E60140935A
S1130B70E5018193919302C0E0E0F0E0CF01DF91C1
S1130B80CF911F910F910895CF93DF93009709F4AC
S1130B9081C0FC01329713821282A091E701B091C7
S1130BA0E801109781F420813181820F931F2091F5
S1130BB0E5013091E6012817390751F5F093E60174
S1130BC0E093E50167C0ED0120E030E0CE17DF07D8
S1130BD040F44A815B819E0141155105F1F0EA011F
S1130BE0F5CFD383C28340815181840F951FC817E9
S1130BF0D90759F488819981840F951F02969183AE
S1130C0080838A819B81938382832115310529F412
S1130C10F093E801E093E7013DC0E901FB83EA8337
S1130C2049915991C40FD51FEC17FD0761F48081D8
S1130C309181840F951F0296E901998388838281AB
S1130C4093819B838A83E0E0F0E012968D919C91DE
S1130C501397009719F0FD01DC01F7CF8D919C915A
S1130C6011979D012E5F3F4F820F931F2091E50145
S1130C703091E6012817390769F4309729F4109266
S1130C80E8011092E70102C013821282B093E601D8
S1130C90A093E501DF91CF910895FB01DC0102C02F
S1130CA001900D9241505040D8F70895DC0101C0E5
S1130CB06D9341505040E0F70895AEE0B0E0E3E6B4
S1130CC0F6E00C941E090D891E8986E08C831A8334
S1130CD009838FEF9FE79E838D83AE01475E5F4F4D
S1130CE06F89788DCE0101960E947F06EF81F88589
S1130CF0E00FF11F10822E96E4E00C943A09ABE069
S1130D00B0E0E5E8F6E00C9410096C017B018A017F
S1130D10FC0117821682838181FFCCC1CE0101962A
S1130D203C01F6019381F70193FD859193FF819135
S1130D307F01882309F4BAC1853239F493FD859182
S1130D4093FF81917F01853229F4B60190E00E94DE
S1130D507608E7CF912C212C312CFFE1F315D8F044
S1130D608B3279F038F4803279F08332A1F4232D78
S1130D7020611DC08D3261F0803369F4232D216020
S1130D8016C0832D8260382EE32DE4603E2E2AC0E7
S1130D90F32DF8601DC037FC2DC020ED280F2A303C
S1130DA040F08E32B9F436FC81C1232D2064322EFA
S1130DB019C036FE06C08AE0989E200D1124922E9A
S1130DC011C0EAE02E9E200D1124222EF32DF06294
S1130DD03F2E08C08C3621F4832D8068382E02C043
S1130DE0883641F4F70193FD859193FF81917F014A
S1130DF08111B3CF982F9F7D9554933028F40C5FC5
S1130E001F4F9FE399830DC0833631F0833771F010
S1130E10833509F059C021C0F801808189830E5FB0
S1130E201F4F88248394912C530113C02801F2E0AE
S1130E304F0E511CF801A080B18036FE03C0692D0D
S1130E4070E002C06FEF7FEFC5010E946B084C0198
S1130E508201F32DFF773F2E16C0280122E0420EB7
S1130E60511CF801A080B18036FE03C0692D70E0EA
S1130E7002C06FEF7FEFC5010E9460084C01F32DA3
S1130E80F0683F2E820133FC1BC0822D90E088164F
S1130E909906B0F4B60180E290E00E9476082A94A4
S1130EA0F4CFF50137FC859137FE81915F01B601DE
S1130EB090E00E94760821102A9421E0821A910879
S1130EC08114910471F7E8C0843611F0893641F534
S1130ED0F80137FE07C060817181828193810C5FC4
S1130EE01F4F08C060817181072E000C880B990B7D
S1130EF00E5F1F4FF32DFF763F2E97FF09C090958D
S1130F008095709561957F4F8F4F9F4FF0683F2E6E
S1130F102AE030E0A3010E94B208882E861845C05A
S1130F20853731F4232D2F7EB22E2AE030E025C000
S1130F30932D997FB92E8F36C1F018F4883579F046
S1130F40B5C0803719F0883721F0B0C0E92FE061CF
S1130F50BE2EB4FE0DC0FB2DF460BF2E09C034FEBE
S1130F600AC0292F2660B22E06C028E030E005C052
S1130F7020E130E002C020E132E0F801B7FE07C012
S1130F8060817181828193810C5F1F4F06C06081F3
S1130F90718180E090E00E5F1F4FA3010E94B208B0
S1130FA0882E8618FB2DFF773F2E36FE0DC0232D8D
S1130FB02E7FA22E891458F434FE0BC032FC09C0D3
S1130FC0832D8E7EA82E05C0B82CA32C03C0B82C6C
S1130FD001C0B92CA4FE0FC0FE01E80DF11D8081F3
S1130FE0803321F49A2D997EA92E09C0A2FE06C051
S1130FF0B394B39404C08A2D867809F0B394A3FC07
S113100011C0A0FE06C0B21488F4280C922C9B18C0
S11310100EC0B21460F4B60180E290E00E9476083B
S1131020B394F7CFB21418F42B1802C0982C212CC7
S1131030A4FE10C0B60180E390E00E947608A2FEF0
S113104017C0A1FC03C088E790E002C088E590E0E7
S1131050B6010CC08A2D867859F0A1FE02C08BE23D
S113106001C080E2A7FC8DE2B60190E00E94760800
S1131070891438F4B60180E390E00E9476089A94CB
S1131080F7CF8A94F301E80DF11D8081B60190E059
S11310900E9476088110F5CF222009F442CEB601D1
S11310A080E290E00E9476082A94F6CFF6018681C9
S11310B0978102C08FEF9FEF2B96E2E10C942C09ED
S11310C0FC010590615070400110D8F7809590950F
S11310D08E0F9F1F0895FC01615070400190011014
S11310E0D8F7809590958E0F9F1F08950F931F93A7
S11310F0CF93DF93FB01238121FD03C08FEF9FEF8B
S11311002CC022FF16C046815781248135814217A5
S1131110530744F4A081B1819D012F5F3F4F318378
S113112020838C93268137812F5F3F4F378326831B
S113113014C08B01EC01FB010084F185E02D0995BD
S1131140892BE1F6D80116968D919C9117970196FB
S113115017969C938E931697CE01DF91CF911F9192
S11311600F910895FA01AA27283051F1203181F115
S1131170E8946F936E7F6E5F7F4F8F4F9F4FAF4F9B
S1131180B1E03ED0B4E03CD0670F781F891F9A1FAE
S1131190A11D680F791F8A1F911DA11D6A0F711D62
S11311A0811D911DA11D20D009F468943F912AE06E
S11311B0269F11243019305D3193DEF6CF01089556
S11311C0462F4770405D4193B3E00FD0C9F7F6CF87
S11311D0462F4F70405D4A3318F0495D31FD40524F
S11311E0419302D0A9F7EACFB4E0A69597958795E5
S11311F077956795BA95C9F70097610571050895C4
S11312009B01AC010A2E069457954795379527956F
S1131210BA95C9F7620F731F841F951FA01D089507
S11312202F923F924F925F926F927F928F929F92F2
S1131230AF92BF92CF92DF92EF92FF920F931F93E0
S1131240CF93DF93CDB7DEB7CA1BDB0B0FB6F89491
S1131250DEBF0FBECDBF09942A88398848885F84D1
S11312606E847D848C849B84AA84B984C884DF8042
S1131270EE80FD800C811B81AA81B981CE0FD11D26
S11312800FB6F894DEBF0FBECDBFED010895F894FC
S1051290FFCF8A
S11312920000E9012000001110010A30003F46005D
S11312A23164004063002E01001B00003E31001433
S11312B204002D00001600001803020701020801B1
S11312C20096000097FD00E30000E40400E502003C
S11312D2E60100E70300F50200D90500DBCE00DCDD
S11312E20300DDF8009F0000A33C00B70000BB3CF4
S11312F200B20900CA0901980101B01701AD00004A
S1131302FF0501000501990501A61B01AC3E01A7D9
S11313121F003000001507001803256420256420EF
S10B132225642025640A000083
S9030000FC
